:020000040800F2
:10000000783700201D0200084B100008431000083C
:1000100047100008E90D0008471E00080000000016
:100020000000000000000000000000008113000834
:10003000110F000800000000D11000086D14000826
:1000400037020008370200083702000837020008AC
:10005000370200083702000837020008370200089C
:10006000370200083702000837020008370200088C
:10007000370200083702000837020008370200087C
:10008000370200083702000837020008370200086C
:10009000370200083702000837020008370200085C
:1000A000370200083702000837020008370200084C
:1000B000DD140008370200080D150008370200089B
:1000C000370200083702000837020008370200082C
:1000D000370200082D1B000837020008370200080D
:1000E000370200083702000837020008370200080C
:1000F00037020008370200083702000837020008FC
:1001000037020008370200083702000837020008EB
:10011000ED160008891700083702000837020008AA
:1001200037020008370200083702000837020008CB
:1001300000F002F800F062F80AA090E8000C824497
:100140008344AAF10107DA4501D100F057F8AFF274
:10015000090EBAE80F0013F0010F18BFFB1A43F0A5
:1001600001031847544D0000744D00000A444FF03D
:10017000000C10F8013B13F0070408BF10F8014B06
:100180001D1108BF10F8015B641E05D010F8016B4B
:10019000641E01F8016BF9D113F0080F1EBF10F8AF
:1001A000014BAD1C0C1B09D16D1E58BF01F801CBD2
:1001B000FAD505E014F8016B01F8016B6D1EF9D555
:1001C0009142D6D37047000000230024002500266A
:1001D000103A28BF78C1FBD8520728BF30C148BFAA
:1001E0000B607047642900F06F80782900F0A880C8
:1001F000002070471FB51FBD10B510BD00F0BBFA41
:100200001146FFF7F7FF02F0F7F900F0D9FA03B44F
:10021000FFF7F2FF03BC01F01FFE00000948804712
:1002200009480047FEE7FEE7FEE7FEE7FEE7FEE7D8
:10023000FEE7FEE7FEE7FEE704480549054A064BF0
:10024000704700007D14000831010008783100205B
:100250007837002078330020783300207047000082
:100260000FB4044910B503AA029800F0DBF910BCE2
:100270005DF814FB6C00002070B5044685690068C9
:10028000C10601D5302600E02026C00707D070BD8A
:10029000D4E9012130469047206A401C20626D1E3F
:1002A000F6D570BD70B5044685690078C00707D1E2
:1002B00070BDD4E9012120209047206A401C2062B3
:1002C0006D1EF6D570BD00002DE9F04106460024F4
:1002D00010687529314616A510D0AFF300800028AC
:1002E00002DA404213A507E031688A0701D512A55A
:1002F00002E0490704D511A5012401E0AFF3008015
:1003000000210A2206F1240709E0B0FBF2FCB0FB51
:10031000F2F302FB1C00303078541846491C0028C8
:10032000F3D123462A463046BDE8F04100F021B91A
:10033000000000002D0000002B0000002000000045
:1003400070B504460D4621461068AFF30080218841
:10035000090502D50F4A7A4402E00E4A7A440E3269
:10036000002104F1240305E000F00F060009965D6A
:100370005E54491C0028F7D120780023000704D5DB
:10038000702D02D009B1022311322046BDE8704021
:1003900000F0EFB8244B00002DE9F05F89460446D9
:1003A0004FF0000ADFF824B1FB44C0F820A020463B
:1003B000E168884700287DD0252806D0D4E90121AE
:1003C0009047206A401C2062F1E700255F462046E6
:1003D000E16888472028064607DB312E05D2B81988
:1003E00010F8200C08B10543F1E7A80701D525F066
:1003F0000405C4F81CA00027C4F818A02A2E09D0B0
:10040000304601F022FD38B304EB8708303EC8F8CF
:10041000186019E059F8041B204604EB870291612B
:10042000E1688847012F064618D1E069002820DAE4
:1004300025F020051DE0D8F8180000EB800006EB41
:1004400040003038C8F818002046E1688847064662
:1004500001F0FBFC0028EED1012F0AD02E2E08D18E
:100460002046E16888477F1C0646022F45F020059C
:10047000C4DBA069002803DA404245F00105A06111
:10048000E80701D025F01005A6B1A6F14100192812
:1004900002D8203645F400654A463146204625609C
:1004A0004D46FFF79FFE60B1012807D0ED1D25F0F6
:1004B000070000E007E000F1080978E705F104090A
:1004C00075E730467AE7206ABDE8F09FFA4A0000F7
:1004D000032A40F2308010F0030C00F0158011F870
:1004E000013BBCF1020F624498BF11F801CB00F848
:1004F000013B38BF11F8013BA2F1040298BF00F89C
:1005000001CB38BF00F8013B11F0030300F09C80E1
:10051000083AC0F0088051F8043B083A51F804CB7F
:10052000A0E80810F5E7121D5CBF51F8043B40F845
:10053000043BAFF30080D20724BF11F8013B11F850
:1005400001CB48BF11F8012B24BF00F8013B00F894
:1005500001CB48BF00F8012B704702F0FF0343EACC
:10056000032242EA024200F0A3B870477047704786
:1005700070472DE9F0470D4699469246044600F132
:1005800024080168880604D5E06921F01001216083
:1005900000E00120A84201DD471B00E00027A1691F
:1005A0007A1902EB0900081AA0612078C00602D46B
:1005B0002046FFF761FE002608E0D4E901211AF881
:1005C00006009047206A401C761C20624E45F4DBF2
:1005D0002078C0060AD52046FFF74EFE06E0D4E993
:1005E000012130209047206A401C2062381EA7F16C
:1005F0000107F4DC07E0D4E9012118F80500904771
:10060000206A401C2062281EA5F10105F3DC20466B
:10061000FFF748FE2078000602D50220BDE8F087EB
:100620000120FBE7074B70B50D467B4400F065F8F1
:100630000446284600F074F810B14FF0FF3070BD4A
:10064000204670BDA31F000010B5203AC0F00B80FB
:10065000B1E81850203AA0E81850B1E81850A0E8C6
:100660001850BFF4F5AF5FEA027C24BFB1E8185020
:10067000A0E8185044BF18C918C0BDE810405FEA90
:10068000827C24BF51F8043B40F8043B08BF70470C
:10069000D20728BF31F8023B48BF11F8012B28BF11
:1006A00020F8023B48BF00F8012B70474FF00002D2
:1006B0000429C0F0128010F0030C00F03780CCF158
:1006C000040CBCF1020F18BF00F8012BA8BF20F8E2
:1006D000022BA1EB0C0100F029B85FEAC17C24BF1A
:1006E00000F8012B00F8012B48BF00F8012B7047E0
:1006F00001694A1C02610878704700B58FB0CDE9E6
:1007000001310021059105497944CDE903101146D5
:100710006846FFF741FE0FB000BD0000E5FFFFFF98
:10072000007B00F0800070474FF0000200B51346D8
:1007300094469646203922BFA0E80C50A0E80C5001
:10074000B1F12001BFF4F7AF090728BFA0E80C50B2
:1007500048BF0CC05DF804EB890028BF40F8042BAB
:1007600008BF704748BF20F8022B11F0804F18BF18
:1007700000F8012B7047754600F028F8AE460500DA
:100780006946534620F00700854618B020B5FFF7AC
:1007900053FDBDE820404FF000064FF000074FF03A
:1007A00000084FF0000B21F00701AC46ACE8C0098F
:1007B000ACE8C009ACE8C009ACE8C0098D46704798
:1007C0000446AFF300802046FFF721FD0048704744
:1007D000183100202DE9F04106468846144638A01D
:1007E000FFF73EFD24203E490870542048705820F1
:1007F00088705320C8705120087104F11300000A5A
:10080000487104F11300887136480078C871354882
:100810004078087233488078487246208872307871
:10082000C87270780873B0784873601CC0F35710B2
:100830008873601CC006000EC87300200874A420D2
:100840004874002507E018F80510254A05F1120044
:100850001154681CC5B2A542F5DB0027002504E051
:100860001F48405D4740681CC5B204F11200854234
:10087000F6DB1B490F54411C1BA0FFF7F1FC0020C5
:10088000234908600BE01648214A1268815C21A0C8
:10089000FFF7E6FC1E480068401C1D49086004F193
:1008A00013001B4909688842EDDC1CA0FFF7D8FC47
:1008B00004F113000A4901F019F9BDE8F0810000C4
:1008C000D5FDD4DABDF8D0D0B1B1B6B7B6CCB1A8A9
:1008D000CEC4B7E2D7B0A1ADA1AD0D0A00000000B3
:1008E00028130020D9000020B1B1B6B7B7E2D7B0C5
:1008F000CDEAB3C9A3ACBCB4BDABB7A2CBCDB3A456
:10090000B6C8CEAA2564B5C4B1A8CEC43A0D0A00B3
:10091000AC00002025303258200000000D0A2A2AA1
:100920002A2A2A2A2A2A2A2A2A2A2A2A2A2A2A2A27
:100930002A2A2A2A2A2A2A2A2A2A2A2A2A2A2A2A17
:100940002A2A2A2A2A2A2A2A2A2A0D0A0D0A0000D5
:100950002DE9F04F87B0044688460027002651A0B5
:10096000FFF77EFC1EB92078242800D1761C012ECA
:1009700004D16078542801D1761C00E00026022EB4
:1009800004D1A078582801D1761C00E00026032E5F
:1009900004D1E078582801D1761C00E00026042E0E
:1009A0006DD1207958286AD1002660798DF8180019
:1009B000A0798DF81900E0798DF81400207A8DF86F
:1009C0001500607A8DF8160094F80A90E07A8DF898
:1009D0001000207B8DF81100607B8DF81200A07B49
:1009E0008DF80800E07B8DF80900207C8DF804006C
:1009F000607C8DF805009DF804009DF8051060F3FB
:100A00001F210F463846F91707EB5171CF1000250B
:100A100005E005F11200205C08F805006D1CBD42E0
:100A2000F7DB07F1120014F800A0401C14F800B026
:100A3000002504E004A8405D03A948556D1C032D62
:100A4000F8DB24A0FFF70CFC0020284908600BE02D
:100A50002648006818F8001025A0FFF701FC23487D
:100A60000068401C2149086020480068B842EFDB5C
:100A700021A0FFF7F5FB384607B0BDE8F08F60789E
:100A8000462808D1A0784B2805D1002627A0FFF7DB
:100A9000E7FB701EF0E7002628A0FFF7E1FB701EC1
:100AA000EAE70000D5FDD4DABDF8D0D0B1B1B6B7D1
:100AB000B1A8CEC4BDE2CEF6D2D4B5C3B5BDB5E7BC
:100AC000C1A6B1A8CEC4CAFDBEDDA1ADA1AD0D0ABF
:100AD00000000000C6E4D6D0B5E7C1A6CAFDBEDD61
:100AE000B1A8CEC4CEAA3A0D0A000000AC00002086
:100AF00025303258200000000D0A2A2A2A2A2A2AE4
:100B00002A2A2A2A2A2A2A2A2A2A2A2A2A2A2A2A45
:100B10002A2A2A2A2A2A2A2A2A2A2A2A2A2A2A2A35
:100B20002A2A2A2A2A2A0D0A00000000B1B1B6B7E3
:100B3000B7B5BBD8D0C5CFA20D0A0000CEDED0A776
:100B4000D0C5CFA20D0A00002DE9F84380460C461F
:100B500067A0006800906078FF2801D1012000E0C4
:100B60000020A178FF2901D1012100E000210840E7
:100B700000286ED0E07800286CDDE1785DA0FFF7FA
:100B80006FFB00BF614802F095FA0028FAD00425F7
:100B900097E0625DE91E5EA0FFF762FB605D64495D
:100BA0000978484363490978884209DD605D401E41
:100BB0005F4909785F4A127800FB1120C6B201E054
:100BC0005B48067860785C490870A0784870605D82
:100BD0008870584800785649097890FBF1F0401C1D
:100BE0005549C87000270CE0605D401E50490978E7
:100BF00000FB01705149095C381D4F4A1154781CA3
:100C0000C7B2B742F0DB4EA0FFF72AFB605D0128B8
:100C100018D100204F4908600CE047484D49096849
:100C2000405C4D494B4A126888544A480068401C51
:100C30004849086047480168301D8142EDDB47495B
:100C400008603CE0605D02281AD10020414908603C
:100C50000EE04BE042E038483E490968405C4049BC
:100C60003C4A126888543B480068401C3949086077
:100C700038480168301D8142EDDB3A4908601EE0CA
:100C8000605D032818D10020324908600CE02A4832
:100C900030490968405C34492E4A126888542D480E
:100CA0000068401C2B4908602A480168301D8142B9
:100CB000EDDB2E49086002E02DA0FFF7D1FA681C99
:100CC000C5B2E078001DA8423FF763AF3148006825
:100CD0003149086000203149086007E000203049B0
:100CE00008603049086030A0FFF7BAFABDE8F88321
:100CF00004E3C900B1BEB4CEB9B2D0E8D6D8B4AB23
:100D00002564B8F6D7D3B0FC0D0A0000B800002067
:100D1000D5FDD4DAD6D8B4ABB5DA2564B8F6D7D3D6
:100D2000B0FC2CD7D3B0FCBAC5CEAA25640D0A00FE
:100D3000B0000020B10000207A1500200C14002023
:100D4000B5E7CEC4B7E2D7B0CDEAB3C9A1ADA1AD86
:100D50000D0A0000AC000020DE150020C8000020B5
:100D600042160020CC000020A6160020D000002053
:100D7000D7D3B0FCCAFDC4BFB4F3D3DA33A3ACBD40
:100D8000ABB2BBBDF8D0D0B4A6C0EDA1ADA1AD0D46
:100D90000A000000A8000020D40000204C00002021
:100DA000C00000202C000020CAD5B5BD41434BCF68
:100DB000D4CABECEDED0E8D6D8B4ABCAFDBEDDB054
:100DC000FC2CB8C3CAFDBEDDB4ABCAE4B9FDB3CCDC
:100DD000BDE1CAF82CBFC9D2D4D4D9B4CEB7A2CB06
:100DE000CDCAFDBEDD0D0A0000BFFEE770B50646A8
:100DF0000D46002404E0295D2CA0FFF731FA641CA5
:100E0000B442F8D32BA0FFF72BFAA879C92809D14F
:100E100029A0FFF725FA14202B4908702B482C49EC
:100E2000086041E0A879D42816D1287B0C2813D17A
:100E300001202849086028A0FFF712FA002403E0E7
:100E4000285D29490855641CB442F9D3F1B23C220B
:100E5000254801F067FA27E0A879882813D10120F6
:100E60001C4908601CA0FFF7FBF9002403E0285D83
:100E70001D490855641CB442F9D3F1B23C221A480A
:100E800001F050FA10E0A87988280AD1462E08DA35
:100E900016A0FFF7E5F9324629461848FFF79AFCF5
:100EA00002E017A0FFF7DCF970BD000025303258D2
:100EB000200000000D0A0000D0C4CCF8B0FCCAFD30
:100EC000BEDD0D0A00000000040200202001002009
:100ED00000020020C0000020B4FDB7D6B7A2CAFDB2
:100EE000BEDDB0FC0D0A000018300020CAB1BCE421
:100EF000D0C5CFA2CAFDBEDD0D0A0000FC01002056
:100F0000CEDEB7A8CAB6B1F0CAFDBEDD0D0A00003C
:100F100070472DE9F04102460025002600200023FD
:100F20000024002791F803C00CF00F0591F803C0CE
:100F30000CF0100CBCF1000F03D091F802C04CEA89
:100F4000050591F800C0BCF1000F31D014680020F5
:100F50002BE04FF0010C0CFA00F3B1F800C00CEAE2
:100F600003069E4220D183004FF00F0C0CFA03F7CA
:100F7000BC4305FA03FC4CEA040491F803C0BCF13D
:100F8000280F06D14FF0010C0CFA00FCC2F814C077
:100F90000AE091F803C0BCF1480F05D14FF0010CF5
:100FA0000CFA00FCC2F810C0401C0828D1D3146011
:100FB000B1F800C0BCF1FF0F34DD546800202EE012
:100FC00000F1080C4FF0010808FA0CF3B1F800C06A
:100FD0000CEA03069E4221D183004FF00F0C0CFA5D
:100FE00003F7BC4305FA03FC4CEA040491F803C080
:100FF000BCF1280F05D100F1080C08FA0CF8C2F872
:10100000148091F803C0BCF1480F07D100F1080C1F
:101010004FF0010808FA0CF8C2F81080401C0828AC
:10102000CED35460BDE8F08102460020D3680B4067
:101030000BB1012000E00020704741617047016161
:10104000704700BFFEE700BFFEE7704770B50021A4
:1010500000230F22C47804B3154C246804F4E06420
:10106000C4F5E064210AC1F10403CA40447804FADB
:1010700003F184781440214309010E4C0678A155F0
:10108000047804F01F050124AC4005786D11AD0013
:1010900005F1E025C5F8004109E0047804F01F05DA
:1010A0000124AC40044D0678761145F8264070BD09
:1010B0000CED00E000E400E080E100E002490143C3
:1010C000024A1160704700000000FA050CED00E0D4
:1010D0007047000029B1064AD2690243044BDA6125
:1010E00004E0034AD2698243014BDA617047000091
:1010F0000010024029B1064A12690243044B1A61EA
:1011000004E0034A12698243014B1A6170470000F0
:101110000010024029B1064A92690243044B9A61C9
:1011200004E0034A92698243014B9A6170470000D0
:101130000010024029B1064AD2680243044BDA602B
:1011400004E0034AD2688243014BDA607047000032
:101150000010024030B500210022002400232D4D54
:101160006D6805F00C0121B1042905D0082923D1AF
:1011700005E0294D056022E0274D05601FE0254D63
:101180006D6805F47012234D6D6805F480340225F6
:1011900005EB92421CB9214D554305600BE01D4DF6
:1011A0006D6805F400351DB11C4D5543056002E026
:1011B000194D5543056002E0174D056000BF00BFA3
:1011C000144D6D6805F0F0010909154D6B5C05685B
:1011D000DD4045600F4D6D6805F4E061090A104D72
:1011E0006B5C4568DD4085600A4D6D6805F46051B3
:1011F000C90A0B4D6B5C4568DD40C560054D6D68E7
:1012000005F44041890B074D6B5CC568B5FBF3F5F0
:10121000056130BD0010024000127A0000093D0057
:101220001C0200202C02002000B587B0012141F2F1
:101230000500FFF76FFF6020ADF8040003208DF874
:10124000060018208DF8070001A92148FFF761FE6C
:101250008020ADF8040003208DF8060018208DF8DA
:10126000070001A91A48FFF754FE1020ADF804004A
:1012700001208DF8060010208DF8070001A9144800
:10128000FFF747FE0020ADF808004FF48270ADF87C
:101290000A000020ADF80C00ADF80E00ADF810000B
:1012A0004FF40070ADF812000820ADF814000020D3
:1012B000ADF816000720ADF8180002A9054800F0A7
:1012C00041F80121034800F023F807B000BD0000F9
:1012D000000801400030014010B5044600BF022163
:1012E0000A4800F021F80028F9D02146074800F00C
:1012F00027F800BF0121054800F016F80028F9D0B2
:10130000024800F01AF8C0B210BD000000300140E1
:1013100021B1028842F04002028004E002884FF6C8
:10132000BF731A40028070470246002013890B40A9
:101330000BB1012000E0002070470146888970470A
:101340008181704710B50022028802F441520B8857
:101350004C8823438C882343CC8823430C89234324
:101360004C8923438C892343CC8923431A4302802D
:10137000838B4FF2FF74234083830B8A038210BD5B
:10138000704710B500F002F810BD00000CB5002049
:10139000019000903348006840F480303149086083
:1013A00000BF3048006800F4003000900198401CF5
:1013B0000190009818B90198B0F5A06FF1D12948B3
:1013C000006800F4003010B10120009001E000201E
:1013D00000900098012843D12348006840F0100095
:1013E000214908600846006820F0030008600846AC
:1013F000006840F0020008601A48406819494860D7
:101400000846406848600846406840F4806048608C
:101410000846406820F47C1048600846406840F464
:10142000E81048600846006840F08070086000BF1F
:101430000C48006800F000700028F9D009484068A6
:1014400020F00300074948600846406840F0020069
:10145000486000BF0348406800F00C000828F9D13C
:101460000CBD00000010024000200240024800684D
:10147000401C0149086070476800002010B51348FF
:10148000006840F0010011490860084640681049B2
:1014900008400E494860084600680E4908400B495C
:1014A00008600846006820F480200860084640680C
:1014B00020F4FE0048604FF41F008860FFF761FFD2
:1014C0004FF000600449086010BD000000100240A9
:1014D0000000FFF8FFFFF6FE08ED00E010B5012167
:1014E000880700F089F870B140210748FFF79CFD9C
:1014F000044624B940210448FFF7A1FD03E0402140
:101500000148FFF79AFD10BD0010014010B5012100
:10151000084800F071F860B10748008840F40040C6
:10152000054908800121034800F057F8002000F029
:1015300031F810BD00080040880000207FB5054646
:101540000C4601210420FFF7C5FDADF80450ADF8AD
:1015500000400020ADF80600ADF8020069460C48D6
:1015600000F066F801221146094800F056F81E20E6
:101570008DF80C0001208DF80D0002208DF80E0072
:1015800001208DF80F0003A8FFF760FD7FBD00006C
:101590000008004010B5044644B10021064800F0A0
:1015A00045F80121044800F01BF803E0002102483F
:1015B00000F016F810BD00000008004021B10288BC
:1015C00042F08002028004E002884FF67F731A40E6
:1015D00002807047CA4302827047CA430282704742
:1015E00021B1028842F00102028004E002884FF635
:1015F000FE731A400280704730B502460020002377
:101600000024158A05EA0103958905EA010413B14E
:101610000CB1012000E0002030BD1AB183890B43DA
:10162000838102E083898B43838170478184704783
:10163000002202881D4B98420ED01D4B98420BD0C1
:10164000B0F1804F08D01B4B984205D01A4B9842FE
:1016500002D01A4B984204D14FF68F731A404B8830
:101660001A43174B984207D0164B984204D04FF6B6
:10167000FF431A40CB881A4302808B8883850B88EE
:1016800003850A4B98420BD0094B984208D00E4B69
:10169000984205D00D4B984202D00D4B984201D193
:1016A0000B7A03860123838270470000002C0140DF
:1016B000003401400004004000080040000C0040DD
:1016C0000010004000140040004001400044014070
:1016D0000048014021B1028842F00402028004E087
:1016E00002884FF6FB731A400280704710B540F233
:1016F0002551204800F0E2FA012810D11D4800F0E1
:1017000099FB1D491D4A126888541C480068401CFA
:101710001A49086040F22551164800F054FA40F288
:101720002771144800F0CAFA01281ED11448006835
:1017300080B11448006801780E4800F080FB104822
:101740000068401E0E4908600E480068401C0D49A4
:1017500008600AE040F22771064800F034FA0022DF
:1017600040F22771034800F0D3FAFF21014800F04E
:1017700021FA10BD004C0040A80A0020740000208F
:101780007C0000207800002010B540F2255126484A
:1017900000F094FA08B3244800F04CFBC4B223488C
:1017A0000088B0F5806F12DA00212148FFF73EFF74
:1017B0001E48008810B90120FFF7ECFE1B48018885
:1017C0000088401C194A10801A48445405E0174804
:1017D000008840F400401549088040F22771124803
:1017E00000F06CFA01281ED11348006880B113483C
:1017F000006801780C4800F022FB0F480068401E8A
:101800000D4908600D480068401C0C4908600AE05A
:1018100040F22771044800F0D6F9002240F2277107
:10182000014800F075FA10BD00500040880000200B
:1018300000080040280F00208400002080000020C5
:1018400010B586B0044601213020FFF763FC01216A
:101850000805FFF73FFC284800F0E2F94FF48050FC
:10186000ADF8100003208DF8120018208DF8130039
:1018700004A92248FFF74DFB0420ADF810008DF8B5
:10188000130004A91E48FFF744FB00940020ADF8A4
:101890000400ADF80600ADF80800ADF80C000C200F
:1018A000ADF80A006946144800F058FA01211248C0
:1018B00000F0A9F9012240F225510F4800F028FA62
:1018C00035208DF8140002208DF8150003208DF8C6
:1018D000160001208DF8170005A8FFF7B7FB41F6A9
:1018E0001F416320FFF72AFE002006490880FFF70A
:1018F00051FE06B010BD0000005000400010014035
:10190000001401408800002070B505460C460B48C5
:10191000006810B14FF0FF3070BD084805600848FE
:10192000046040F22771074800F04DF9012240F2AF
:101930002771044800F0ECF90020EDE78400002056
:10194000800000200050004030B5CBB0154805683D
:10195000002D25DD294614A0FEF782FC002409E0B5
:101960001848005D0DF804001DF8041016A0FEF7DD
:1019700077FC641CAC42F3DB01201549086015A01C
:10198000FEF76EFC00200749086020496846FEF714
:10199000DFFF0546002D03DD1C49284601F0F0F865
:1019A0004BB030BD74000020CAD5B5BDB1A8CEC4BF
:1019B000B3A4B6C8CEAA2564B5C4CAFDBEDD3A0D2F
:1019C0000A000000A80A002025303258200000003C
:1019D0002C0000200D0A2D2D2D2D2D2D2D2D2D2DE2
:1019E0002D2D2D2D2D2D2D2D2D2D2D2D2D2D2D2D27
:1019F0002D2D2D2D2D2D2D2D2D2D2D2D2D2D2D2D17
:101A00002D2D2D2D2D2D0D0A00000000440200204B
:101A100010B588B00446012144F20500FFF77AFBB7
:101A20000121C804FFF756FB01211020FFF772FBCC
:101A300018208DF81F004FF48060ADF81C000320C3
:101A40008DF81E0007A92748FFF763FA04208DF8D8
:101A50001F004002ADF81C0003208DF81E0007A9EE
:101A60002048FFF756FA03940020ADF81000ADF8B7
:101A70001200ADF81400ADF818000C20ADF81600F7
:101A80000020ADF80400ADF80800ADF8060001A98B
:101A9000154800F0A7F803A9134800F05FF90121E9
:101AA000114800F0B0F84FF4A060FFF707FB3420B6
:101AB0008DF8000000208DF8020001208DF8010053
:101AC0008DF803006846FFF7C1FA4FF6FF7106482C
:101AD00000F079F8012240F22551034800F018F98E
:101AE00008B010BD00100140004C004070B5054624
:101AF0000C460B48006810B14FF0FF3070BD08482D
:101B000005600848046040F22771074800F05BF860
:101B1000012240F22771044800F0FAF80020EDE7B6
:101B20007C00002078000020004C004010B540F2FE
:101B300025511D4800F0C2F810B31B4800F07AF997
:101B4000C4B21A48008800F40040C8B91748008899
:101B500000F4804060B10A2C03D0002013490880B3
:101B600021E01248008840F40040104908801AE043
:101B70000D2C06D10D48008840F480400B490880A8
:101B800011E00A480088C0F30D0009490C540748C9
:101B90000088401C0549088008460088B0F5006FA1
:101BA00001DB0020088010BD0038014070000020DB
:101BB000A802002001F40072B2F5007F00D100BF3E
:101BC000CA430280704710B50022002340F66A1411
:101BD000A14200D100BF0A1201249440A3B2DC4309
:101BE000048010BD10B502460020108A4FF2FF039A
:101BF00018400B884C8823438C882343CC8823438C
:101C00001843108210BD21B1828942F400528281B2
:101C100004E082894DF6FF731A408281704700000C
:101C200010B504462048844209D101218803FFF7FA
:101C300081FA00214FF48040FFF77CFA32E01B4824
:101C4000844209D101214804FFF754FA00214FF4DE
:101C50000030FFF74FFA25E01548844209D10121F1
:101C60008804FFF747FA00214FF48020FFF742FA7B
:101C700018E01048844209D10121C804FFF73AFA5C
:101C800000214FF40020FFF735FA0BE00A488442A8
:101C900008D101210805FFF72DFA00214FF480102B
:101CA000FFF728FA10BD0000003801400044004052
:101CB00000480040004C00400050004070B5024613
:101CC000002400230025002040F66A16B14200D10E
:101CD00000BFC1F3421501F01F03012606FA03F30A
:101CE000012D02D19689334006E0022D02D1168AD9
:101CF000334001E0968A33400C12012606FA04F4C0
:101D00001688344013B10CB1012000E0002070BDF2
:101D1000F0B50346002400260025002040F66A178F
:101D2000B94200D100BF1846C1F3421401F01F06AA
:101D3000012707FA06F5012C01D10C3004E0022C32
:101D400001D1103000E014301AB107682F4307604A
:101D500002E00768AF430760F0BD00002DE9F047DF
:101D600086B005460E460024A24600BFA1460027C5
:101D7000B08900B100BF2F462C8A4CF6FF7004409A
:101D8000F08804432C82AC894EF6F3100440B088EE
:101D900031890843718908430443AC81AC8A4FF60A
:101DA000FF400440B0890443AC8201A8FFF7D2F998
:101DB0001F48874202D1DDF810A001E0DDF80CA039
:101DC000A88900F4004040B10AEBCA0000EB0A10F9
:101DD00031684900B0FBF1F807E00AEBCA0000EBFC
:101DE0000A1031688900B0FBF1F86420B8FBF0F00C
:101DF00004012009642101FB1089A88900F4004036
:101E000040B1322000EBC900B0FBF1F000F0070058
:101E1000044308E0322000EB09106421B0FBF1F02C
:101E200000F00F0004432C8106B0BDE8F0870000ED
:101E30000038014001468888C0F308007047C1F3AC
:101E400008028280704700BFFEE730380A2801D2BE
:101E50000120704700207047014600BF7047F0B571
:101E60000B46144619461E19751E0BE04E780F7866
:101E700006EB0726B2B28618B0B2904201DA461CD1
:101E8000B0B2891CA942F1D3A9420AD10E78002729
:101E900007EB0626B2B28618B0B2904201DA461CB1
:101EA000B0B2F0BD01480068704700006800002033
:101EB0002DE9FE4301210846FFF70CF940F2E73017
:101EC000ADF804001548006802F07FFE06460022C7
:101ED000134B02F0F5FC04460022124B02F0DCFE2C
:101EE000804602F045FE80B2ADF800000020ADF85B
:101EF000020069464FF08040FFF79AFB01218807F6
:101F0000FFF75CFB00214FF08040FFF7E3FB01216E
:101F10008807FFF75FFBBDE8FE830000300200206A
:101F200080842E410000F03F10B504461021524835
:101F3000FFF785F8FF220021104600F0D5F900BF19
:101F40001D2000F049F900F001000028F8D0002021
:101F50004A4908600021082000F0A0F9002109206A
:101F600000F09CF900210C2000F098F900210D20D0
:101F700000F094F9FE210A2000F090F919210B20BD
:101F800000F08CF9FF21042000F088F919210520C8
:101F900000F084F9FF21062000F080F91F210720BE
:101FA00000F07CF9B021382000F078F93F2128209A
:101FB00000F074F93021292000F070F9F921302067
:101FC00000F06CF9F721312000F068F90D21C020F4
:101FD00000F064F90021C12000F060F93322C22131
:101FE000802000F081F91221C62000F057F90C2161
:101FF000C72000F053F91221C42000F04FF9DC2172
:10200000CA2000F04BF90521CB2000F047F92178D8
:10201000E42000F043F96178E52000F03FF9A17871
:10202000E22000F03BF9E178E32000F037F9217974
:10203000E02000F033F96179E12000F02FF94FF44E
:102040008071002000F0AFF84FF48071102000F094
:10205000AAF81F2000F008F9C0221B21802000F000
:1020600043F904221F21802000F03EF94FF48F61D4
:10207000142000F098F810BD000801406400002012
:102080002DE9F04105460F46392000F0A5F810B9BA
:102090000020BDE8F08129480178002000F0FEF81A
:1020A00026480088C0F30721012000F0F7F800213E
:1020B0003A2000F0B7F82149086000213A2000F0EA
:1020C000B1F81E49096841EA00201C490860002156
:1020D0003A2000F0A7F8044600213A2000F0A2F8C8
:1020E00044EA0024241F00213A2000F09BF8064611
:1020F00000213A2000F096F846EA0026681EA04229
:1021000000D26C1E06F0800008B9002403E03946B6
:10211000204600F06BF8094801780C2000F0BEF86A
:1021200006480088C0F307210D2000F0B7F84022D0
:102130001E21802000F0D8F82046AAE76400002085
:1021400070B504460D46FF21022000F0A7F81921C2
:10215000032000F0A3F8FF202044C1B2062000F0C5
:102160009DF841F6FF102044C0F30721072000F03E
:1021700095F8002211467A2000F0B6F8294620464C
:1021800000F098F808221F21802000F0ADF81C20F4
:1021900000F022F800F0020020B108221F21A02048
:1021A00000F0A2F870BD70B505460C462946D42053
:1021B00000F074F8E1B2D62000F070F8C4F3072103
:1021C000D72000F06BF800BFEA2000F005F800F01F
:1021D00001000028F8D170BD10B50446204600F07B
:1021E00043F82146002000F01DF810BD70B50546EB
:1021F0000C4610210A48FEF720FF3A20FFF76CF842
:1022000005E06D1E0020FFF767F82070641C002DAC
:10221000F7D10020207010210148FEF710FF70BD9B
:102220000008014070B505460C46002610210D48F7
:10223000FEF703FF04F01F0040EA05063046FFF7F3
:102240004BF8FF20FFF748F8064604F0800018B16D
:10225000FF20FFF741F8064610210248FEF7EFFE87
:10226000304670BD0008014010B5044604F060001F
:102270000949097888420ED003221F21A02000F0CE
:1022800033F8C4F341121F21802000F02DF804F030
:1022900060000149087010BD6000002070B5044660
:1022A0000D462046FFF7E0FF2A462146402000F079
:1022B0001BF870BD70B504460D4610210948FEF7A5
:1022C000BCFE7A20FFF708F804E0641E2878FFF7C8
:1022D00003F86D1C002CF8D110210248FEF7AFFE68
:1022E00070BD0000000801402DE9F04104460D4694
:1022F0001646002710210A48FEF79FFE05F01F0032
:1023000040EA04073846FEF7E7FF37463846FEF74F
:10231000E3FF10210248FEF792FEBDE8F0810000C5
:10232000000801402DE9F84F83460E4617464FF04E
:102330000008B9466AA000680090314669A0FDF720
:102340008FFF704807707048067096FBF7F0401CCE
:1023500000F0FF0841466DA0FDF782FF4FF0000A34
:1023600008E01BF80A00764901F80A000AF10100AA
:1023700000F0FF0AB245F4DB002476E0611C71A096
:10238000FDF76EFFFF20764908704870601C88706A
:10239000084680F8038004FB1960484503DA04FB13
:1023A000156000F0FF09002508E007FB04501BF84A
:1023B0000010281D6A4A1154681CC5B24D45F4DB53
:1023C000C4B90020674908600CE0654865490968A0
:1023D000405C6549634A1268885462480068401C42
:1023E000604908605F480168281D8142EDDB5F4954
:1023F000086038E0012C18D100205A4908600CE030
:10240000574858490968405C5949564A12688854E7
:1024100054480068401C5349086052480168281D10
:102420008142EDDB534908601DE0022C18D10020E9
:102430004C4908600CE04A484A490968415C4E48EA
:10244000484A1268815447480068401C4549086062
:1024500044480168281D8142EDDB4849086002E0DC
:1024600047A0FDF7FDFE601CC4B2444586DB4DA0CD
:10247000FDF7F6FEFF205149087048700020887073
:10248000084680F80380042404E000204B490855E6
:10249000601CC4B208F10400A042F6DC48480460A5
:1024A0000020304908600CE044482E490968415C2E
:1024B00044482C4A126881542A480068401C294923
:1024C0000860284800683E4909688842ECDB3C48BF
:1024D00000683D4908603D4800F0FEFDBDE8F88F0A
:1024E00004E3C900D5FDD4DAB2F0B7D6B3A4B6C8B8
:1024F000CEAA2564B5C4B1A8CEC4A1ADA1AD0D0AC4
:1025000000000000B0000020B1000020B1BEB4CE39
:10251000B1A8CEC4BDABB1BBB2F0B7D6CEAA2564CC
:10252000B8F6D7D3B0FC2CD7D3B0FCD0F2BAC5B430
:10253000D33031BFAACABCA1ADA1AD0D0A000000C5
:102540000C140020D5FDD4DAB4A6C0EDB5DA2564AC
:10255000B8F6D7D3B0FCA1ADA1AD0D0A00000000C4
:102560007A150020AC000020DE150020C8000020F5
:1025700042160020CC000020A6160020D00000202B
:10258000D7D3B0FCCAFDC4BFB4F3D3DA33A3ACBD18
:10259000ABB2BBBDF8D0D0B4A6C0EDA1ADA1AD0D1E
:1025A0000A000000D5FDD4DAB7E2D7B041534BB1F1
:1025B000A8CEC4A1ADA1AD0D0A0000000C150020ED
:1025C000A80000200A170020D400002000000020EE
:1025D00000BF054A128802F04002002AF9D0C2B2B8
:1025E000014B1B1D1A80704700380140014608024C
:1025F00040EA212080B270478AB000BFBEA00068C8
:1026000000900020BD490860BD490860BD490860D0
:102610004FF41650FFF7FCF94FF4165002F04CF847
:102620004FF41650FFF70CF9B7A0FDF719FEBFA045
:10263000FDF716FEC6A0FDF713FECEA0FDF710FEB7
:10264000FFF736FCFEF7F0FDD3A0FDF709FEDB49EE
:10265000481EB0F1807F00D31BE0481E4FF0E022FF
:10266000506150170F22002807DA13071E0ED44BB3
:1026700000F00F052D1F5E5503E013071D0ED14B13
:102680001D5400BF00204FF0E02290610720106130
:1026900000BF00F06FFA642107A800F023FD42F2AA
:1026A000107105A800F01EFD42F2107103A800F0A1
:1026B00019FD4EF64861C44800F014FDC34901A855
:1026C00000F010FD00F0B8FC01F00EF8C0A0FDF71E
:1026D000C7FD4FF4C060FEF7F1FCC6A0FDF7C0FDDA
:1026E000CDA0FDF7BDFDD5A0FDF7BAFDDCA0FDF73F
:1026F000B7FD00BF4DF27240ADF8240043F27550B3
:10270000ADF8260000BF00BFBDF82400DD490880F9
:10271000BDF82600488000BF00BF4DF27240ADF802
:1027200024004FF4B870ADF8260000BF00BFBDF81C
:102730002400D5490880BDF82600488000BF00BFAE
:102740004FF6FF70ADF82400F020ADF8260000BF72
:1027500000BFBDF82400CD490880BDF826004880A0
:1027600000BFCBA0FDF77CFD00F060FCC3E000F0F3
:102770008BFCD049088008460088002823DD4FF4F0
:102780000060FFF733FFCC49898988420BD10120D3
:1027900001F014F8C7480088002814DD00F016FE88
:1027A00000F07CFC0FE040F60600FFF71FFFC24977
:1027B0008989884207D100F095FDBE48008800282D
:1027C00001DD00F06BFC07A800F074FC002833D09A
:1027D00007A800F07CFCB948006880F40050B749B5
:1027E0000860002416E000BF04EB4400C0EB441076
:1027F000B34901EB8000B3490860022000F0DEFF1E
:1028000000BFAC480088002803DD00F0DFFD00F0C9
:1028100045FC641C282CE6DB05A800F04BFC38B115
:1028200005A800F054FC00F0A1FEA7A0FDF718FDDC
:1028300000F060FCFFF788F8634800F03BFC0028DC
:1028400059D02F480068012855D15F4800F044FC5A
:10285000A1A0FDF705FDA948006800280ADDA748EA
:10286000008882B2A6496846FDF7B4FF0020A3495C
:10287000086040E0A348006800280ADDA1480088FD
:1028800082B2A1496846FDF7A5FF00209D49086076
:1028900031E09E48006800280ADD9C48008882B22A
:1028A0009B496846FDF796FF00209849086022E0A2
:1028B0009848006800281EDD97A0FDF7D1FC9548D8
:1028C000008882B29F496846FDF784FF0D48006882
:1028D000401C0C4908600846006803280BDD9AA0DC
:1028E000FDF7BEFC00208B49086005490860A0493F
:1028F0000860044908603AE704E3C90014000020B6
:10290000C00000204C0000202D2D2D2D2D2D2D2D13
:102910002D2D2D2D2D2D2D2D2D2D2D2D2D2D2D2DE7
:102920002D2D2D2D2D2D2D2D0D0A00007C2D2D2D25
:10293000B1B1B6B7D6D5B6CBC4A3BFE9D5FDD4DA0D
:10294000D7BCB1B8C6F4B6AF2D2D2D7C0D0A000052
:102950007C2020202020202020202020202020201B
:102960002020202020202020202020202020207C0B
:102970000D0A00007C20202020202DB4AEBFDAB349
:10298000F5CABCBBAFCDEAB3C92D20202020202042
:102990002020207C0D0A00007C20202020202D53A8
:1029A0005049B3F5CABCBBAFCDEAB3C92D20202036
:1029B000202020202020207C0D0A0000401901004A
:1029C00018ED00E000E400E000000020E0930400C7
:1029D0007C202020202DCDF8BFA8BACD756970B31A
:1029E000F5CABCBBAFCDEAB3C92D20202020207C86
:1029F0000D0A00007C2DC5E4D6C3B1BEBBFAB5D824
:102A0000D6B7B2A2BFAACABCC1ACBDD3B7FECEF185
:102A1000C6F72D7C0D0A00007CB1BEBBFA4950A35D
:102A2000BA20203131342E3231322E3131372E3529
:102A3000332020202020207C0D0A00007CD7D3CD1D
:102A4000F8D1DAC2EBA3BA3131342C3231322C3125
:102A500031322C31202020202020207C0D0A000043
:102A60007CCDF8B9D8A3BA202020203235352C32BD
:102A700035352C3234302C30202020202020207C72
:102A80000D0A0000E0000020E4000020E800002023
:102A90002D2D2D2D2D2D2D2D2D2D2D2D2D2D2D2D66
:102AA0002D2D2D2D2D2D2D2D2D2D2D2D2D2D2D0D76
:102AB0000A000000FC0000203C1700200C1401401C
:102AC0001C1D0020040100206172705F74696D6537
:102AD0002E2E2E0D0A000000B1B1B6B7D5FDD4DA06
:102AE000B9A4D7F7A3ACC7EBCEF0D4D9B4CEB7A274
:102AF000CBCDCAFDBEDD0D0A00000000C8000020DD
:102B0000DE150020CC00002042160020D00000205E
:102B1000A6160020D4000020D7D3B0FCD2D1C8AB79
:102B2000B2BFB7A2CBCDCDEAB1CFA3ACD5FDD4DA3D
:102B3000B7E2D7B041534BB1A8CEC4A1ADA1AD0D02
:102B40000A0000000A17002041534BB4CECAFDB35F
:102B5000ACB9FDC8FDB4CE2CB8C3CAFDBEDDB4AB64
:102B6000CAE4B9FDB3CCCAA7B0DC0D0A000000006E
:102B70002C00002000200149087070478A000020C6
:102B800070B506460D466878FF281CD068790C2879
:102B900019D11420AC490870AC48AD490860ADA00B
:102BA000FDF75EFB002406E0A9480068015DAEA0C9
:102BB000FDF756FB641CA44800788442F4DBACA00B
:102BC000FDF74EFB3EE16878FF281FD068790128A9
:102BD0001CD1A8790C2819D114209B490870A5484C
:102BE0009B4908609BA0FDF73BFB002406E098484A
:102BF0000068015D9CA0FDF733FB641C92480078DF
:102C00008442F4DB9AA0FDF72BFB1BE16878FF28D8
:102C10001FD0687902281CD1A8790C2819D114205A
:102C20008949087094488A4908608AA0FDF718FB12
:102C3000002406E086480068015D8BA0FDF710FBCC
:102C4000641C814800788442F4DB89A0FDF708FB0E
:102C5000F8E06878FF281FD0687903281CD1A8798C
:102C60000C2819D1142078490870844878490860E4
:102C700078A0FDF7F5FA002406E075480068015DCC
:102C800079A0FDF7EDFA641C6F4800788442F4DB0C
:102C900077A0FDF7E5FAD5E06878FF281FD06879BE
:102CA00004281CD1A8790C2819D114206649087071
:102CB00073486749086067A0FDF7D2FA002406E070
:102CC00063480068015D68A0FDF7CAFA641C5E48AD
:102CD00000788442F4DB66A0FDF7C2FAB2E06878BF
:102CE000FF281FD0687905281CD1A8790C2819D194
:102CF00014205549087063485549086055A0FDF7F0
:102D0000AFFA002406E052480068015D56A0FDF7C6
:102D1000A7FA641C4C4800788442F4DB54A0FDF709
:102D20009FFA8FE06878FF281FD0687906281CD1A9
:102D3000A8790C2819D114204349087052484449F5
:102D4000086044A0FDF78CFA002406E040480068C3
:102D5000015D45A0FDF784FA641C3B48007884427D
:102D6000F4DB43A0FDF77CFA6CE06878FF281FD005
:102D7000687907281CD1A8790C2819D11420324968
:102D8000087042483249086032A0FDF769FA002411
:102D900006E02F480068015D33A0FDF761FA641C6E
:102DA000294800788442F4DB31A0FDF759FA49E064
:102DB0006878FF281FD0687908281CD1A8790C28CA
:102DC00019D114202049087031482149086021A0F8
:102DD000FDF746FA002406E01D480068015D22A0C8
:102DE000FDF73EFA641C184800788442F4DB20A00A
:102DF000FDF736FA26E06878FF281FD068790928A1
:102E00001CD1A8790C2819D114200F490870214829
:102E10000F4908600FA0FDF723FA002406E00C48D4
:102E20000068015D10A0FDF71BFA641C06480078DD
:102E30008442F4DB0EA0FDF713FA03E0F0B229465A
:102E4000FDF782FE002070BD040200203401002046
:102E500000020020BCB4BDABB7A2CBCDB5C4D6B880
:102E6000C1EECEAAA3BA0A002530325820000000D5
:102E70000D0A0000480100205C01002070010020C4
:102E80008401002098010020AC010020C001002036
:102E9000D4010020E801002070B53A48006800F134
:102EA0001C063948007800F0100010B137A0FDF77B
:102EB000D7F93548007800F0400010B135A0FDF793
:102EC000CFF93148007800F00200002849D034A042
:102ED000FDF7C6F93748016837A0FDF7C1F93B484F
:102EE00001683BA0FDF7BCF93C4801683CA0FDF738
:102EF000B7F936480068002825D12E48006810BB75
:102F00003B480568002404E0295D3AA0FDF7A8F9D4
:102F1000641C3A4800888442F6DB1DA0FDF7A0F946
:102F20003348016835480088FEF7EEFCA879C928C7
:102F300008D133A0FDF794F91420354908703548BD
:102F4000354908600CE01B48006830B92848016822
:102F50002A480088FDF74AFF02E030A0FDF780F91B
:102F600000BF0948007800F0080050B1002428484C
:102F700001782948006801F05DFB002024490870B1
:102F800000BF70BD0401002000010020B9D8B1D5F8
:102F90000D0A0000C1ACBDD3B3C9B9A60D0A00002B
:102FA000554950BDD3CAD5B5BDD0C2CAFDBEDD0D91
:102FB0000A000000C000002042445F70726F636529
:102FC00073735F5354413D25640D0A002C000020AB
:102FD00062645F6F6E3D25640D0A000028000020CA
:102FE000677072735F6F6E3D25640D0A000000000C
:102FF000F40000202530325820000000FC000020A2
:10300000D0C4CCF8B0FCCAFDBEDD0D0A0000000043
:10301000040200202001002000020020B1B1B6B758
:10302000BDF8B3CCB7B1C3A60D0A000010B549F284
:103030001F0000F0A3FB10BD1CB51148FEF774FF84
:10304000002404E00E48005D0DF80400641C062C0A
:10305000F8DB00BF9DF800000A4908709DF80100E8
:1030600048709DF8020088709DF80300C8709DF8B4
:10307000040008719DF80500487100BF1CBD0000E8
:1030800050000020EC00002010B5034940F2DC5055
:10309000FEF7F6FF10BD00003C17002010B50349F5
:1030A00003480088FFF74CF810BD00003C170020D3
:1030B000FC00002010B50446FEF7F4FE2168401A1B
:1030C0006168884201D3012010BD0020FCE7D0E9EF
:1030D000001211440160704710B50446FEF7E2FE8D
:1030E000206010BD70B504460D466560FEF7DAFE3F
:1030F000206070BD70B5CCB000262948008800F46F
:10310000004000284AD0002025490988C1F30E015B
:10311000244A505422480088C0F30E050120224959
:10312000086000242DE01F48005D01A9085501A892
:10313000015D1EA0FDF794F801A8005D1D49095D21
:1031400088421DD1761C102E1AD11B480068002819
:1031500016D11AA0FDF784F820A0FDF781F817A07A
:10316000FDF77EF800200E490880002403E00020CF
:103170000C490855641CAC42F9DB01204CB070BD11
:10318000641CAC42CFDB1CA0FDF76AF801A92846FD
:10319000FFF7F6FC002002490880EFE700BFEDE7EB
:1031A00088000020280F00202800002025303258F9
:1031B00020000000180000202C0000200D0A2D2DFA
:1031C0002D2D2D2D2D2D2D2D2D2D2D2D2D2D2D2D2F
:1031D0002D2D2D2D2D2D0D0A000000007C202020EE
:1031E0003447CDA8D0C5C4A3BFE9D2D1BDD3C8EB65
:1031F000202020207C0000000D0A2D2D2D2D2D2DAE
:103200002D2D2D2D2D2D2D2D2D2D2D2D2D2D2D2DEE
:103210002D2D2D2D2D2D2D2D2D2D2D2D2D2D2D2DDE
:103220002D2D2D2D2D2D2D2D2D2D0D0A00000000C5
:10323000C2780A44194BDA70827802EB21229A7024
:1032400042785A7002781A701A469278B2EB212F9F
:103250000ADA1A465278521C5A701A4652781AB92B
:103260001A461278521C1A700C4AD278CBB29A4283
:1032700012DA0A4A9278521C084B9A701A469278CF
:1032800052B91A465278521C5A701A4652781AB9D4
:103290001A461278521C1A70704700001001002064
:1032A00010B5044621460D4800680830FFF7C0FFFE
:1032B0000B480078094909680872094841780748AD
:1032C00000684172064881780448006881720448A9
:1032D000C17802480068C17210BD000004010020DE
:1032E0001001002010B5354800882A2803D200209C
:1032F0003249088010BD0020304908803048808A5B
:10330000B0F5807F03D0B0F5007F54D141E02C4868
:10331000C08C2C49098888423AD12948008D294916
:103320004988884234D126491631881D00F04AF96F
:103330004FF40070224988820846D1F816200262B4
:10334000498B818420490A68C0F816208988418306
:103350001D490A68C0F806208988418101460A6A29
:103360000260898C8180808B1549C8840846C18B96
:103370000185144800881249888312484188104802
:10338000C1834FF4C1600E4988812A200B4908800F
:1033900011E00B48C08C0B49098888420AD10848C3
:1033A000008D08494988884204D105491631881D95
:1033B00000F008F900BF00BF00BF9BE7FC00002041
:1033C0003C170020E0000020EC00002010B55B4816
:1033D000C08B5B49098888420CD15848008C5849F9
:1033E0004988884206D1554856490A68026089884A
:1033F000818091E05148C08B534909880840534966
:103400000988514A1288114088420BD14B48008CE0
:103410004D49498808404D4949884B4A52881140D6
:10342000884208D000BF4A4800884A490880484876
:103430004088488008E000BF4048C08B454908806C
:103440003E48008C488000BF00204349087016E0C9
:103450004148007800EB4000404901EB80043D48C2
:1034600000882188884205D13A484088618888428E
:1034700000D108E038480078401C374908703648C9
:1034800000780828E4DB00BF3348007808283ED1E4
:10349000FF2206212948FDF760F828480021016233
:1034A00081842F490A68C0F80620898841812C4907
:1034B0000A68C0F816208988418300BF2548008823
:1034C0001E49C884234841881C48018500BF00BFAD
:1034D0001E480088194988831C4841881748C183C1
:1034E00000BF4FF4807015498882C8810820088287
:1034F000062088740420C8744FF4C160888101F1EB
:103500003600184908602A201749088010BD0B486A
:103510006168016021898180084811490A68C0F802
:103520000620898841810820044988810E48008846
:103530000E300D49088000BFE8E700003C1700206E
:103540007A4E0008744E0008E8000020E0000020D9
:10355000E4000020180100201C010020B82F0020EA
:10356000EC000020F4000020FC0000201249097843
:10357000491C114A11700021104A117017E00F49BF
:10358000097801EB41010E4A02EB81000188428873
:10359000114339B1817A084A1278511A782901DB2E
:1035A0000021016005490978491C044A117003494A
:1035B00009780829E3DB70471E0100201C01002068
:1035C000B82F002010B502460023424C23701FE0A4
:1035D000404B1B7803EB43033F4C04EB8300038811
:1035E0008BB143887BB113880488A3420BD15388E5
:1035F0004488A34207D10B6843608B880381374B13
:103600001B78837210BD334B1B785B1C314C2370CD
:10361000304B1B78082BDBDB00232E4C237010E093
:103620002C4B1B7803EB43032B4C04EB83000388E8
:1036300013B9438803B908E0264B1B785B1C254C63
:103640002370244B1B78082BEADB00BF214B1B782F
:10365000082B34D10023224C2370224C23701D4CA4
:1036600023701DE01B4B1B7803EB43031A4C04EB48
:103670008300837A194C2478E31A194C2478A342E6
:1036800009DD837A154C2478E31A154C2370114B0D
:103690001B78144C23700F4B1B785B1C0D4C237054
:1036A0000C4B1B78082BDDDB0E4B1B78094C237071
:1036B00023461B7803EB4303074C04EB830013689A
:1036C00003600B6843608B880381044B1B78837213
:1036D00000BF97E71C010020B82F00201E0100202A
:1036E0001F0100201D0100200020174908700AE07A
:1036F00000201649144A127821F812001248007866
:10370000401C11490870104800782828F0DB002080
:103710000D4908700FE000200B49097801EB4102C8
:10372000C2EB41110A4A02EB810148760648007853
:10373000401C05490870044800782828EBDB4FF44A
:103740008060044908807047140100203C2F00204D
:103750001C1D00200E01002010B514220649002077
:10376000FEF77DFB044614B94FF6FF7010BD2046EE
:10377000FEF73CFFFAE700004A17002000210D4A3F
:10378000117010E00C490B4A127831F8121029B967
:103790000949084A127821F812007047054909784A
:1037A000491C044A1170034909782829EADB00BF43
:1037B000F3E70000140100203C2F002070B50546FF
:1037C000FD480468FD48FE490860FE490860032D75
:1037D0000ED1607E00F00F00032807D1208A28B99F
:1037E0000820F9490870FFF757FBFDE300F00FBF11
:1037F000022D73D1F548C078401CC0B2F349C8709F
:1038000078B908468078401CC0B2887048B908462C
:103810004078401CC0B2487018B908460078401C77
:1038200008700020EA490880EA490880607E07287D
:1038300002D0607E052808D1A07E401CA076A07E24
:10384000782860D1002060765DE0607E00285AD044
:10385000208A00284CD0A17E481EA076002952D193
:10386000E07E082808D0607E022802D0607E012811
:103870000FD1E07E05280CD1002060768020D2494F
:103880000870FFF709FB1421CC48363880F82F1058
:10389000FEE3E07E042801DD042000E0E07E032159
:1038A0008140A176E07E401CE076CB48C08C401C75
:1038B00081B2C948C184607E00F00F00092822D27D
:1038C000DFE800F02105060D132114211500E8E2C0
:1038D0000021BA48363880F82F10E7E214E00420BF
:1038E000B9490870FFF7D8FAFEE300BF00BFFCE358
:1038F000607E00F00F00032805D10820B24908704F
:10390000FFF7CAFA71E771E7B3484088401CB24933
:103910004880AA483638807B452808D00846008869
:10392000401C08800846C088401CC8805EE7A34849
:103930003638417C007C01EB0020A549098888428B
:1039400008DC9E483638417C007C01EB0020A04911
:10395000088000E04AE799483638007D00F03F00D3
:1039600018B996483638407D48B19B480088401CBD
:103970009949088008468089401C888136E7974825
:10398000008897490988884205D19448408894491D
:103990004988884213D089483638C08B8F490988B6
:1039A000884206D185483638008C8C49498888423F
:1039B00005D089480088401C8749088016E7FFF732
:1039C000CBFE4FF6FF71884209D083480088401C27
:1039D000814908800846C089401CC88106E77748AD
:1039E0003638C07D062800D15CE074483638C07D8A
:1039F000012809D078480088401C7749088008468B
:103A0000008A401C0882F1E67348808A401C81B21B
:103A1000714881826948363890F8220008280BD016
:103A20006D48408A401C6C4948820846008B401C07
:103A300081B269480183D9E600216048363880F8B0
:103A40002210808C4FF6F771884208DB5B483638CD
:103A5000808C093081B259483638818407E0574854
:103A60003638808C083081B254483638818400BFA3
:103A700052483638418BC183818B018400BF00BF1F
:103A8000564801884D4836384183544841884B4850
:103A90003638818300BF5048C08A401C81B24E48EE
:103AA000C182FDE34C48808B401C81B24A4881832F
:103AB00000F0D8FD4FF6FF7188420BD04648408B8E
:103AC000401C454948830846008C401C81B242484E
:103AD00001848BE6434C1BE0607EC0B1374836382A
:103AE000808CA188884212D134483638408CE188D5
:103AF00088420CD131483638408B2188884206D123
:103B00002E483638808B6188884200D1EAE17434CF
:103B100035488442E0D92948363890F82F0000F023
:103B20003F00022800D022E024483638808C2F49FC
:103B3000088000202E4908700EE02E482C49097894
:103B400030F8110029490988884200D1C0E028488E
:103B50000078401C26490870254800782828ECDBAE
:103B60001D48408D401C81B21B48418500BF134851
:103B7000363890F82F0000F0040000B136E6164801
:103B8000808C401C81B21448818414210B48363843
:103B900080F82F1028200E49088050210748363819
:103BA00080F82E1090F82900114908700348363823
:103BB00090F82D1020E00000040100207217002072
:103BC000F4000020F8000020000100200A0100207D
:103BD000FC000020FE0000208C2F0020E0000020D0
:103BE000704E00081C1D0020C82E00201601002069
:103BF000140100203C2F002080F82910FB48017898
:103C0000FB4880F82D1090F82800F8490870F84813
:103C100090F82C1080F82810F4480178F44880F8C7
:103C20002C1090F82700F1490870F14890F82B10FB
:103C300080F82710ED480178ED4880F82B1090F8B7
:103C40002600EA490870EA4890F82A1080F8261001
:103C5000E6480178E64880F82A1090F82D00401CCC
:103C6000C1B2E34880F82D10B1B990F82C00401C87
:103C7000C1B2DF4880F82C1071B990F82B00401CBD
:103C8000C1B2DB4880F82B1031B990F82A00401CF3
:103C9000C1B2D74880F82A10D548408CD549088051
:103CA000D348818C4184D3480188D148818400BFA6
:103CB000418BC183818B018400BF00BFCE48018846
:103CC000CB484183CC484188C948818300BFF4E395
:103CD00000240020C54908703CE0C448007800EB8F
:103CE0004001C1EB4010C54901EB8000407E48B95E
:103CF000BE48007800EB4001C1EB4010BF4901EB2A
:103D000080042BE0B948007800EB4001C1EB401083
:103D1000BA4901EB8000407E072816D164B1B34850
:103D2000007800EB4001C1EB4010B44901EB80008A
:103D3000807EA17E884208DDAC48007800EB40011F
:103D4000C1EB4010AD4901EB8004A8480078401C4D
:103D5000A6490870A54800782828BEDB00BF34B902
:103D6000A748008D401C81B2A54801853EE5A548C5
:103D700004600320A07620760020A0750420E07562
:103D80000020E0769A48808CA0809948408CE080A2
:103D900000BF9748408B20809548808B608000BF93
:103DA00001206076984800782073974841786173C5
:103DB0008178A173C178E173012020828C4890F84A
:103DC0002910E17290F82810A17290F82710617202
:103DD00090F8260020720120FFF762FA844890F8DC
:103DE0002E0000F0F00050285ADD00207F490870B6
:103DF0004AE07E48007836307D49085C8349087087
:103E00000846007800B94AE080480078012805D1CA
:103E100076480078401C7549087035E07B4800788A
:103E2000022820D17148007837307149085C042895
:103E300019D16E4800783930095C6C480078383008
:103E40006B4A105C41EA00206A49088008460088F5
:103E500040F2A651884201DD084601E0654800882D
:103E60006082A0821BE06148007837306049085CBE
:103E700000B914E05D48007837305D49085C5B4963
:103E80000978084459490870594890F82E000521CE
:103E9000C1EB201055490978B1EB800FA9DB00BFB9
:103EA00000BF1021524880F82F1000BF504890F8F2
:103EB0002F0040F002014E4880F82F10022180F8B8
:103EC0003610042180F83710052180F83810A6211B
:103ED00080F839102C204E4908806021444880F831
:103EE0002E100CE34748046000204A4908704048FF
:103EF00090F82F0000F0040030B100206076202000
:103F00000870FEF7C9FF82E3394890F82E000011CF
:103F10008000364908703E4800880978401A1438F5
:103F20003B490880607E00F00F00022806D130482F
:103F300090F82F0000F03F00122822D0344800886B
:103F4000002805DC2A4890F82F0000F00300C0B1DB
:103F5000274890F82600217A884211D1244890F809
:103F60002710607A81420BD1214890F82810A07A5E
:103F7000814205D11E4890F82910E07A814200D094
:103F8000AFE21B4890F82F0000F0100068B3208AC1
:103F900058B3218A04F10C00FFF74AF9144890F84D
:103FA0002A001D49097888425ED1114890F82B00FB
:103FB00019494978884257D10D4890F82C00164984
:103FC0008978884250D10A4890F82D001249C97862
:103FD000884249D11048007820730F4841786173B6
:103FE0008178A173C17819E092E13DE014010020CD
:103FF0003C17002016010020E00000201C1D0020BE
:104000008C2F0020040100200A010020150100204F
:10401000FC0000200001002010010020E173E07E80
:10402000D8B9217EA27E891A48B2A17DA0EBE10118
:1040300048B2A17D0144A175002801DA414248B28D
:10404000E17DA0EBA10148B2E17D0144E175E17D94
:10405000A27D01EBE201217600BF0120F749087043
:10406000207EA07600202082607E00F00F000928CC
:104070006DD2DFE800F06C0527C4F8F7F6F5F40020
:10408000EE48007800F00100D8B10320607600E02F
:104090002CE24020E949087000202082E84800888E
:1040A000002808DD0846007840F002000870E44867
:1040B0000088FFF7F5F80020E2490880FEF7ECFEE3
:1040C00026E1A4E2DD48007800F00100F0B3DE480C
:1040D00090F82F0000F03F00122837D1DA4890F80E
:1040E0002E0000F0F00001E054E1B3E050285DDD67
:1040F0000020D64908704DE0D44800783630D249C7
:10410000085CD34908700846007800B94DE0D048F3
:104110000078012805D1CD480078401CCB490870B3
:1041200038E0CB480078022823D1C84800783730DF
:10413000C549085C04281CD1C44800783930095CA2
:10414000C24800783830C04A105C01E04DE0C6E15A
:1041500041EA0020BF4908800846008840F2A65185
:10416000884201DD084601E0BA4800886082A082EA
:104170001BE0B64800783730B349085C00B914E05A
:10418000B24800783730B049085CB0490978084433
:10419000AE490870AC4890F82E000521C1EB201004
:1041A000AA490978B1EB800FA6DB00BF0320607637
:1041B000A54890F826002072A34890F82710617255
:1041C00090F82810A17290F82910E1720120FFF7F1
:1041D00067F8422099490870002020829849088099
:1041E00098490880FEF758FE92E020209349087015
:1041F000FEF752FE0020984909684876B7E49248D5
:1042000090F82F0000F0010070B3607E00F0100005
:1042100050BB208A00B1FAE189490988491C88B25B
:10422000FFF73EF88548007840F010008349087099
:1042300083480088002804DD0846007840F002002A
:104240000870FEF729FE01202082082060760020F9
:10425000E07600BF11217C4880F82F1046E1BBE0DA
:1042600032E132E10EE1C4E0FFE7774890F82F0039
:1042700000F02000C8B1744890F8351090F8340070
:1042800041EA0020754909680844744908606E488D
:1042900090F8351090F8340041EA0020684900E0B9
:1042A000ACE10988081A664908806548008800283A
:1042B0000DDD607E00F0100048B96048007840F0E5
:1042C00002005E4908705E480088FEF7E9FF5E481C
:1042D00090F8311090F8300001EB00205D49088023
:1042E000A08A0988884202DB5A48008810B9A08A4F
:1042F000584908805748008860825048007800F08C
:104300000300E8B300204F490880FEF7C5FD00BF59
:104310004A48007800F0200040B100204949088058
:1043200060761421484880F82F10DFE04348007879
:1043300000F0100068B1002042490880012020826E
:10434000042060760020E07611213F4880F82F108D
:10435000CCE03C480088002819DD3848007800F09F
:10436000010008B100202082208A68B9608A35499E
:104370000988884202DA608A32490880314800E0C0
:1043800029E00088208202E0208A2E49088000204F
:10439000E07600BF3248006830490860294800884C
:1043A00000280BDD208A002808DD208A28302449D7
:1043B00008801821244880F82F109BE01F480078BF
:1043C00000F0020038B128201D49088010211E4845
:1043D00080F82F108EE01AE11848007800F00100F4
:1043E00030B100206076102014490870FEF754FDAB
:1043F00075E013480088002803DD11480088FEF7A7
:104400004FFF114890F82F0000F00100A8B10B48B1
:10441000007800F0010028B1072060760020A07627
:10442000208201E0062060760120FEF739FF10208F
:1044300002490870FEF730FD53E013E00001002050
:10444000FC000020FE0000203C170020140100208A
:10445000150100201601002004010020F4000020B6
:10446000F80000206D48007800F0010020B1052020
:10447000607600202082CAE069480088002800DDBC
:104480002FE0C4E066480088002803DD6448008807
:10449000FEF706FF634890F82F0000F0010068B1B6
:1044A000072060760020A0760120FEF7F9FE10209C
:1044B0005A490870FEF7F0FC13E062E058480088A3
:1044C000002800DD0DE0A2E00BE05448007800F089
:1044D000010018B1072060760020A07600BF00BF61
:1044E00095E010214F4880F82F1000BF28204C493C
:1044F000088000BF50214B4880F82E1000BF217A61
:10450000484880F82A10617A80F82B10A17A80F848
:104510002C10E17A80F82D10217B80F82610617B29
:1045200080F82710A17B80F82810E17B80F8291003
:104530000621C175A1884184E188818400BF3A4881
:10454000018838484183384841883648818300BF14
:1045500000BF2188C1836188018400BF607E00F0B4
:10456000100030B100212F4880F8311080F8301051
:1045700006E005212B4880F83010A62180F8311084
:1045800000BF402127488175254800880112254831
:1045900001742348017823484174002180F83510C4
:1045A00080F83410418600F05DF8C04381B21D48A8
:1045B000418645201B49887300211A48C173417503
:1045C00001751A480088401C184908800846008870
:1045D000011214488174154801781248C1740021F1
:1045E0000183FFF7B9F8C04381B20E480183104838
:1045F000C08B401C81B20E48C18300BF0C4880882C
:10460000401C0B49888000200449087070BD0020C0
:10461000034908800149087000BFF7E70001002046
:10462000FC0000203C170020E000002008010020D2
:104630008C2F002070B504460D46002D0CDD074977
:104640000D8007480068844206D00846028821464B
:1046500003480068FBF73CFF70BD0000FE0000202F
:10466000F800002010B5062000F002F810BD000090
:1046700070B504460F48417C007C01EB00201438E3
:1046800085B2281986B208220A491A313046FDF748
:10469000E6FB06462A46074922313046FDF7DFFB96
:1046A000064616B94FF6FF7070BD3046FDF79EFF07
:1046B000FAE700003C17002010B586B0044601213F
:1046C00044F20400FCF726FD0121C804FCF702FDBA
:1046D00001212020FCF71EFD01211020FCF71AFD0E
:1046E0004FF40070ADF8140003208DF81600182068
:1046F0008DF8170005A91C48FCF70BFC4FF48060EF
:10470000ADF8140004208DF8170005A91648FCF731
:1047100000FC25208DF8000003208DF801008DF8A5
:10472000020001208DF803006846FCF78FFC01941D
:104730000020ADF80800ADF80A00ADF80C00ADF8A7
:1047400010000C20ADF80E0001A90848FDF706FB8B
:10475000012240F225510548FDF7DAFA012103480C
:10476000FDF751FA06B010BD0008014000380140C5
:1047700010B591EA030F48BF83F0004300F1948223
:10478000841A71EB030C05D2121943EB0C03001BC6
:1047900061EB0C01DFF824E14FEA1154A4EB135C48
:1047A0001EEA430F18BF9EEA445F73D023EA0E034C
:1047B000DCF1200E21EA045143F4801332D322FAB3
:1047C0000CFE10EB0E0023FA0CFE41EB0E01CCF1B7
:1047D000200E03FA0EFE10EB0E0051F10001B1F5B0
:1047E000801FCCF1200E32D201EB045112FA0EF2EE
:1047F000BDE8104058BF7047401C38BF5FEA420216
:1048000018BF7047002814BF20F0010041F10001DB
:104810004FEA410313F5001F38BF7047A1F1C041B3
:1048200000F034BA012A43EB0302ACF1200CDCF1B6
:104830001F0E32BF4FF0000E23FA0CF310EB0300F3
:1048400041EB0451B4EB115FD0D0A1EB045101F561
:10485000801149085FEA300001EB04510ED350F19A
:10486000000038BF12FA0EFE08D1BDE81040C9E7BB
:10487000401C38BF5FEA4202CAD1C3E7BDE810401E
:104880004FEA410313F5001F38BF7047A1F1C04143
:1048900000F0FCB99EEA445F08D011EA5E0FBDE863
:1048A000104004BF01F0004100207047BDE81040F7
:1048B00070B500F09DF900BF64FBBE3E0000E0FF54
:1048C0002DE9C04130B4DFF8A0C23CEA111418BF92
:1048D0003CEA131400F0EC8081EA03051CEA111491
:1048E00044EAD57418BF1CEA131500F0C780A4EB86
:1048F00005044FF0004545EAC12145EAC32341EADA
:10490000505143EA525304F17F74994204F5003444
:104910004FEAC0204FEAC22208BF904200F09C80BC
:104920004FEA13650FF24016765D4FEA134506FB1A
:1049300005F7C7F1807706FB07F74FEAD737A7FBE4
:1049400003687642C8F58038A7FB06CE38BFA8F1C9
:10495000010807FB08E64FF0000EA6FB028CE6FB01
:1049600003CEDCF1000CCEF1004E38BFAEF1010EEB
:10497000A6FB0C584FF000074FF00005E6FB0E8732
:10498000A1FB08C6A0FB07CE16EB0E0645F10005FD
:10499000E1FB076515F1E04E7EBFA4F580345FEAC8
:1049A00046066D4116F1800745F100054FEA1727CD
:1049B0004FEA066647EA0567A6F1DE46B6F1805F74
:1049C0004FEA15251FD9384624F0010C05EBC471B8
:1049D000BCF1FE6F01EB0C1102D8F0BCBDE8008108
:1049E00024425CBF01F5801E9EEAC47F02D4F0BC65
:1049F000BDE80081244238D4F0BCA1F1C041BDE83B
:104A0000004100F043B94FEAD22242EA43524FEA52
:104A1000D323A7FB02864FEAD02040EA415007FB90
:104A200003661EEA0E0F4FEAD12105FB026658BF4E
:104A3000A6EB0056B6EB00564FEA520E4EEAC37E86
:104A400018EB0E0E56EB530EBDD518EB02085E4167
:104A50007F1C55F10005B6E74FF480154FF00007B5
:104A60004FF000064FF00008ADE7F0BC4FF000003B
:104A700001F1C04101F00041BDE8008111EA0C1FC5
:104A80000CEA131500D00CE013EA0C1F00F025808F
:104A90004FF00000F0BC81EA030101F00041BDE8E5
:104AA0000081F0BCBDE8004181EA030100F0EEB8EE
:104AB000F0BCBDE8004170B500F09AF8097EFC3EFC
:104AC00000F007B881EA03014FF0000001F0004157
:104AD000704781EA030100F0D9B8F0BCBDE800419D
:104AE0004FF0000021497047FFFDFBF9F7F5F4F2A4
:104AF000F0EEEDEBE9E8E6E4E3E1E0DEDDDBDAD879
:104B0000D7D5D4D3D1D0CFCDCCCBCAC8C7C6C5C4D6
:104B1000C2C1C0BFBEBDBCBBBAB9B8B7B6B5B4B3ED
:104B2000B2B1B0AFAEADACABAAA9A8A8A7A6A5A4D8
:104B3000A3A3A2A1A09F9F9E9D9C9C9B9A9999989C
:104B40009797969595949393929191908F8F8E8E3F
:104B50008D8C8C8B8B8A89898888878786858584CC
:104B600084838382828181800000FF070000F87FB8
:104B70004FEA1153A3F58063D3F11E03A8BFD3F10D
:104B8000200C08DB4FF0004242EAC12252EA5052A8
:104B900032FA03F0704709420BD4102BC4BF002037
:104BA000704703F5787CBCF1FF3F05D04FF0FF3034
:104BB00070474FF00000704770B500F019F800BF63
:104BC0004992248000207047F0E7B0FA80F310FA91
:104BD00003F10AD0C3F11D0303F580634FEA41508E
:104BE0004FEA035202EBD12170474FF000007047AB
:104BF0000EF1020E2EF0030E5EF8046B364205D461
:104C0000012A43EB030515F5001F12D8012841EBDB
:104C1000010C1CF5001F0CD80ED14FEAD17C15F504
:104C2000001F0CEB4C0C0CF1020C08BF4CEBD37CBE
:104C300004E04FF0080C01E04FEAD37C0CEB4C058C
:104C400026FA05F606F00706B6F1040C06D20EEBBE
:104C5000860CBDE870404CF0010C6047DFE80CF0BA
:104C6000090B02024FF000414FF00000A1F50021B6
:104C700070BD19461046012851EB010418BFD4F548
:104C8000001484BF002001F0004170BD0808A0F5A9
:104C900000114FEA3101704710B591EA030F48BF88
:104CA00083F000433FF56CAD841A71EB030C07D21F
:104CB00012198CF0004C43EB0C03001B61EB0C0150
:104CC000DFF8A4E14FEA1154A4EB135C1EEA430F92
:104CD00018BF9EEA445F00F0B08023EA6E035242A0
:104CE00021EA0451C3EB6E0338BF5B1EDCF1200EDA
:104CF00025D322FA0CFE10EB0E0043FA0CFE41EB1A
:104D00000E01CCF1200E03FA0EFE10EB0E0051F155
:104D10000001CCF1200E29D412FA0EF201EB04515D
:104D2000BDE8104058BF7047401C1CBFB2F1004F97
:104D3000704700280CBF491C20F00100704712EB9F
:104D4000020E43EB030218BF4FF0010E4EEA42027F
:104D5000ACF1200CDCF11E0E54D943FA0CFE10EB22
:104D60000E0051F1FF31CCF11E0ED5D50EF1010E22
:104D700012FA0EFE404141EB010101EB445C5FEA97
:104D80005C5C10D910EBDE7001EB045138BFBEF152
:104D9000004FBDE8104018BF704700280CBF491CE9
:104DA00020F00100704730D24FEAD42C11F50011E9
:104DB00024F400641BD0B1FA81F20B3AA41AA41EA9
:104DC000D2F12003914030FA03F31943904001EBF4
:104DD000CC71002C01EB0451BDE81040A8BF704716
:104DE00001F1C0414FF0000001F000417047B0FAFE
:104DF00080F310FA03F100D110BDE41A173C480506
:104E0000C90AE4E701EB045110BD491001EB04515C
:104E1000BDE810404FEA300002E04FF0000170475B
:104E20004A0008BF0042F8D0B2F5001F28BF704703
:104E300001F000414FF0000070479EEA445F07D048
:104E400011EA5E0FBDE8104004BF0021002070474A
:104E5000BDE8104070B5FFF7CBFE00BF40DFF63E67
:104E600083F00041104670470000E0FFFFFFFFFFA6
:104E700000000000FFFFFFFFFFFFFFFFFFFF3031DB
:104E80003233343536373839414243444546403071
:104E90005800303132333435363738396162636423
:104EA0006566403078000400000800000000000043
:104EB0000002000100001000D84E00080000002091
:104EC000440200006C010008A44F000844020020C6
:104ED00034350000C801000881900868656C6C6F6B
:104EE0000D0A70120D0A5B5553522D37533420565C
:104EF000325D0D0A01180A3131342E3231322E3131
:104F0000046333365C3830380A31063602351230E5
:104F100051162458545A4A520D17352449434A43CE
:104F2000420CF22B02241E044404E3C8136832121C
:104F3000321268162142089302226012014B611658
:104F4000143A4B14D8080C6001010104BE141A0273
:104F500014DABF141A0414DAC1141A0814DA7C140F
:104F60001A1014DA84141A2014DA94141A4014DA79
:104F7000B4141A8014EAF4A0ED02010476A0191406
:104F8000D6771604E3C9F648656C6C6F2D010203F1
:104F9000040410090607080902040608ACA24A0422
:044FA0001C291800B0
:0400000508000131BD
:00000001FF
